{
  "contractName": "EscrowSale",
  "abi": [
    {
      "inputs": [
        {
          "internalType": "uint256",
          "name": "_price",
          "type": "uint256"
        },
        {
          "internalType": "uint256",
          "name": "_courierFee",
          "type": "uint256"
        }
      ],
      "stateMutability": "nonpayable",
      "type": "constructor"
    },
    {
      "anonymous": false,
      "inputs": [],
      "name": "Cancelled",
      "type": "event"
    },
    {
      "anonymous": false,
      "inputs": [
        {
          "indexed": true,
          "internalType": "address",
          "name": "seller",
          "type": "address"
        },
        {
          "indexed": true,
          "internalType": "address",
          "name": "courier",
          "type": "address"
        }
      ],
      "name": "Completed",
      "type": "event"
    },
    {
      "anonymous": false,
      "inputs": [
        {
          "indexed": true,
          "internalType": "address",
          "name": "buyer",
          "type": "address"
        }
      ],
      "name": "Delivered",
      "type": "event"
    },
    {
      "anonymous": false,
      "inputs": [
        {
          "indexed": true,
          "internalType": "address",
          "name": "buyer",
          "type": "address"
        },
        {
          "indexed": false,
          "internalType": "uint256",
          "name": "amount",
          "type": "uint256"
        }
      ],
      "name": "Funded",
      "type": "event"
    },
    {
      "anonymous": false,
      "inputs": [
        {
          "indexed": true,
          "internalType": "address",
          "name": "buyer",
          "type": "address"
        },
        {
          "indexed": false,
          "internalType": "uint256",
          "name": "amount",
          "type": "uint256"
        }
      ],
      "name": "Refunded",
      "type": "event"
    },
    {
      "anonymous": false,
      "inputs": [
        {
          "indexed": true,
          "internalType": "address",
          "name": "courier",
          "type": "address"
        }
      ],
      "name": "Shipped",
      "type": "event"
    },
    {
      "inputs": [],
      "name": "buyer",
      "outputs": [
        {
          "internalType": "address payable",
          "name": "",
          "type": "address"
        }
      ],
      "stateMutability": "view",
      "type": "function",
      "constant": true
    },
    {
      "inputs": [],
      "name": "courier",
      "outputs": [
        {
          "internalType": "address payable",
          "name": "",
          "type": "address"
        }
      ],
      "stateMutability": "view",
      "type": "function",
      "constant": true
    },
    {
      "inputs": [],
      "name": "courierFee",
      "outputs": [
        {
          "internalType": "uint256",
          "name": "",
          "type": "uint256"
        }
      ],
      "stateMutability": "view",
      "type": "function",
      "constant": true
    },
    {
      "inputs": [],
      "name": "price",
      "outputs": [
        {
          "internalType": "uint256",
          "name": "",
          "type": "uint256"
        }
      ],
      "stateMutability": "view",
      "type": "function",
      "constant": true
    },
    {
      "inputs": [],
      "name": "seller",
      "outputs": [
        {
          "internalType": "address payable",
          "name": "",
          "type": "address"
        }
      ],
      "stateMutability": "view",
      "type": "function",
      "constant": true
    },
    {
      "inputs": [],
      "name": "state",
      "outputs": [
        {
          "internalType": "enum EscrowSale.State",
          "name": "",
          "type": "uint8"
        }
      ],
      "stateMutability": "view",
      "type": "function",
      "constant": true
    },
    {
      "inputs": [],
      "name": "registerBuyer",
      "outputs": [],
      "stateMutability": "nonpayable",
      "type": "function"
    },
    {
      "inputs": [],
      "name": "registerCourier",
      "outputs": [],
      "stateMutability": "nonpayable",
      "type": "function"
    },
    {
      "inputs": [],
      "name": "fundPurchase",
      "outputs": [],
      "stateMutability": "payable",
      "type": "function",
      "payable": true
    },
    {
      "inputs": [],
      "name": "markShipped",
      "outputs": [],
      "stateMutability": "nonpayable",
      "type": "function"
    },
    {
      "inputs": [],
      "name": "confirmDelivered",
      "outputs": [],
      "stateMutability": "nonpayable",
      "type": "function"
    },
    {
      "inputs": [],
      "name": "complete",
      "outputs": [],
      "stateMutability": "nonpayable",
      "type": "function"
    },
    {
      "inputs": [],
      "name": "cancelBySeller",
      "outputs": [],
      "stateMutability": "nonpayable",
      "type": "function"
    },
    {
      "inputs": [],
      "name": "refundBuyer",
      "outputs": [],
      "stateMutability": "nonpayable",
      "type": "function"
    }
  ],
  "bytecode": "0x608060405234801562000010575f80fd5b5060405162001991380380620019918339818101604052810190620000369190620000f3565b335f806101000a81548173ffffffffffffffffffffffffffffffffffffffff021916908373ffffffffffffffffffffffffffffffffffffffff16021790555081600381905550806004819055505f60055f6101000a81548160ff02191690836005811115620000aa57620000a962000138565b5b0217905550505062000165565b5f80fd5b5f819050919050565b620000cf81620000bb565b8114620000da575f80fd5b50565b5f81519050620000ed81620000c4565b92915050565b5f80604083850312156200010c576200010b620000b7565b5b5f6200011b85828601620000dd565b92505060206200012e85828601620000dd565b9150509250929050565b7f4e487b71000000000000000000000000000000000000000000000000000000005f52602160045260245ffd5b61181e80620001735f395ff3fe6080604052600436106100dc575f3560e01c8063a035b1fe1161007e578063bec1975011610058578063bec197501461020c578063c19d93fb14610216578063de051d5114610240578063e8a61cc81461026a576100dc565b8063a035b1fe146101b6578063a365a85e146101e0578063bd9c82b6146101f6576100dc565b806350a7f7d3116100ba57806350a7f7d31461013657806351261ca214610160578063522e1177146101765780637150d8ae1461018c576100dc565b806308551a53146100e0578063247c7b7f1461010a578063403d214d14610120575b5f80fd5b3480156100eb575f80fd5b506100f4610280565b6040516101019190611181565b60405180910390f35b348015610115575f80fd5b5061011e6102a3565b005b34801561012b575f80fd5b50610134610418565b005b348015610141575f80fd5b5061014a6104e9565b6040516101579190611181565b60405180910390f35b34801561016b575f80fd5b5061017461050e565b005b348015610181575f80fd5b5061018a610668565b005b348015610197575f80fd5b506101a0610a7c565b6040516101ad9190611181565b60405180910390f35b3480156101c1575f80fd5b506101ca610aa1565b6040516101d791906111b2565b60405180910390f35b3480156101eb575f80fd5b506101f4610aa7565b005b348015610201575f80fd5b5061020a610b78565b005b610214610ced565b005b348015610221575f80fd5b5061022a610ebd565b604051610237919061123e565b60405180910390f35b34801561024b575f80fd5b50610254610ecf565b60405161026191906111b2565b60405180910390f35b348015610275575f80fd5b5061027e610ed5565b005b5f8054906101000a900473ffffffffffffffffffffffffffffffffffffffff1681565b60015f9054906101000a900473ffffffffffffffffffffffffffffffffffffffff1673ffffffffffffffffffffffffffffffffffffffff163373ffffffffffffffffffffffffffffffffffffffff1614610332576040517f08c379a0000000000000000000000000000000000000000000000000000000008152600401610329906112b1565b60405180910390fd5b6002806005811115610347576103466111cb565b5b60055f9054906101000a900460ff166005811115610368576103676111cb565b5b146103a8576040517f08c379a000000000000000000000000000000000000000000000000000000000815260040161039f90611319565b60405180910390fd5b600360055f6101000a81548160ff021916908360058111156103cd576103cc6111cb565b5b02179055503373ffffffffffffffffffffffffffffffffffffffff167ffedf826d9b4a1fe2a221dc900337fc72788ddb41c7ae6600c110ca2858365da460405160405180910390a250565b5f73ffffffffffffffffffffffffffffffffffffffff1660025f9054906101000a900473ffffffffffffffffffffffffffffffffffffffff1673ffffffffffffffffffffffffffffffffffffffff16146104a7576040517f08c379a000000000000000000000000000000000000000000000000000000000815260040161049e90611381565b60405180910390fd5b3360025f6101000a81548173ffffffffffffffffffffffffffffffffffffffff021916908373ffffffffffffffffffffffffffffffffffffffff160217905550565b60025f9054906101000a900473ffffffffffffffffffffffffffffffffffffffff1681565b5f8054906101000a900473ffffffffffffffffffffffffffffffffffffffff1673ffffffffffffffffffffffffffffffffffffffff163373ffffffffffffffffffffffffffffffffffffffff161461059b576040517f08c379a0000000000000000000000000000000000000000000000000000000008152600401610592906113e9565b60405180910390fd5b5f8060058111156105af576105ae6111cb565b5b60055f9054906101000a900460ff1660058111156105d0576105cf6111cb565b5b14610610576040517f08c379a000000000000000000000000000000000000000000000000000000000815260040161060790611319565b60405180910390fd5b6005805f6101000a81548160ff02191690836005811115610634576106336111cb565b5b02179055507f63b958841f79ab97cb5456da181454b9932c0e15a3b17f1cbd27e2a8bc61043760405160405180910390a150565b600380600581111561067d5761067c6111cb565b5b60055f9054906101000a900460ff16600581111561069e5761069d6111cb565b5b146106de576040517f08c379a00000000000000000000000000000000000000000000000000000000081526004016106d590611319565b60405180910390fd5b60015f9054906101000a900473ffffffffffffffffffffffffffffffffffffffff1673ffffffffffffffffffffffffffffffffffffffff163373ffffffffffffffffffffffffffffffffffffffff16148061078357505f8054906101000a900473ffffffffffffffffffffffffffffffffffffffff1673ffffffffffffffffffffffffffffffffffffffff163373ffffffffffffffffffffffffffffffffffffffff16145b6107c2576040517f08c379a00000000000000000000000000000000000000000000000000000000081526004016107b990611451565b60405180910390fd5b5f60035490505f60045490505f47905081836107de919061149c565b811461081f576040517f08c379a000000000000000000000000000000000000000000000000000000000815260040161081690611519565b60405180910390fd5b600460055f6101000a81548160ff02191690836005811115610844576108436111cb565b5b02179055505f805f9054906101000a900473ffffffffffffffffffffffffffffffffffffffff1673ffffffffffffffffffffffffffffffffffffffff168460405161088e90611564565b5f6040518083038185875af1925050503d805f81146108c8576040519150601f19603f3d011682016040523d82523d5f602084013e6108cd565b606091505b5050905080610911576040517f08c379a0000000000000000000000000000000000000000000000000000000008152600401610908906115c2565b60405180910390fd5b5f60025f9054906101000a900473ffffffffffffffffffffffffffffffffffffffff1673ffffffffffffffffffffffffffffffffffffffff168460405161095790611564565b5f6040518083038185875af1925050503d805f8114610991576040519150601f19603f3d011682016040523d82523d5f602084013e610996565b606091505b50509050806109da576040517f08c379a00000000000000000000000000000000000000000000000000000000081526004016109d19061162a565b60405180910390fd5b60025f9054906101000a900473ffffffffffffffffffffffffffffffffffffffff1673ffffffffffffffffffffffffffffffffffffffff165f8054906101000a900473ffffffffffffffffffffffffffffffffffffffff1673ffffffffffffffffffffffffffffffffffffffff167f94cd726a50601e116ef0b212c52cb0b6678551bca15c43e890b551e1fe9de16560405160405180910390a3505050505050565b60015f9054906101000a900473ffffffffffffffffffffffffffffffffffffffff1681565b60035481565b5f73ffffffffffffffffffffffffffffffffffffffff1660015f9054906101000a900473ffffffffffffffffffffffffffffffffffffffff1673ffffffffffffffffffffffffffffffffffffffff1614610b36576040517f08c379a0000000000000000000000000000000000000000000000000000000008152600401610b2d90611692565b60405180910390fd5b3360015f6101000a81548173ffffffffffffffffffffffffffffffffffffffff021916908373ffffffffffffffffffffffffffffffffffffffff160217905550565b60025f9054906101000a900473ffffffffffffffffffffffffffffffffffffffff1673ffffffffffffffffffffffffffffffffffffffff163373ffffffffffffffffffffffffffffffffffffffff1614610c07576040517f08c379a0000000000000000000000000000000000000000000000000000000008152600401610bfe906116fa565b60405180910390fd5b6001806005811115610c1c57610c1b6111cb565b5b60055f9054906101000a900460ff166005811115610c3d57610c3c6111cb565b5b14610c7d576040517f08c379a0000000000000000000000000000000000000000000000000000000008152600401610c7490611319565b60405180910390fd5b600260055f6101000a81548160ff02191690836005811115610ca257610ca16111cb565b5b02179055503373ffffffffffffffffffffffffffffffffffffffff167f553caee1d3ff3da211d3666e43cfd4641e13142ac523c34dcb445c5e97cb118a60405160405180910390a250565b60015f9054906101000a900473ffffffffffffffffffffffffffffffffffffffff1673ffffffffffffffffffffffffffffffffffffffff163373ffffffffffffffffffffffffffffffffffffffff1614610d7c576040517f08c379a0000000000000000000000000000000000000000000000000000000008152600401610d73906112b1565b60405180910390fd5b5f806005811115610d9057610d8f6111cb565b5b60055f9054906101000a900460ff166005811115610db157610db06111cb565b5b14610df1576040517f08c379a0000000000000000000000000000000000000000000000000000000008152600401610de890611319565b60405180910390fd5b600454600354610e01919061149c565b3414610e42576040517f08c379a0000000000000000000000000000000000000000000000000000000008152600401610e3990611762565b60405180910390fd5b600160055f6101000a81548160ff02191690836005811115610e6757610e666111cb565b5b02179055503373ffffffffffffffffffffffffffffffffffffffff167f5af8184bef8e4b45eb9f6ed7734d04da38ced226495548f46e0c8ff8d7d9a52434604051610eb291906111b2565b60405180910390a250565b60055f9054906101000a900460ff1681565b60045481565b5f8054906101000a900473ffffffffffffffffffffffffffffffffffffffff1673ffffffffffffffffffffffffffffffffffffffff163373ffffffffffffffffffffffffffffffffffffffff1614610f62576040517f08c379a0000000000000000000000000000000000000000000000000000000008152600401610f59906113e9565b60405180910390fd5b6001806005811115610f7757610f766111cb565b5b60055f9054906101000a900460ff166005811115610f9857610f976111cb565b5b14610fd8576040517f08c379a0000000000000000000000000000000000000000000000000000000008152600401610fcf90611319565b60405180910390fd5b6005805f6101000a81548160ff02191690836005811115610ffc57610ffb6111cb565b5b02179055505f4790505f60015f9054906101000a900473ffffffffffffffffffffffffffffffffffffffff1673ffffffffffffffffffffffffffffffffffffffff168260405161104b90611564565b5f6040518083038185875af1925050503d805f8114611085576040519150601f19603f3d011682016040523d82523d5f602084013e61108a565b606091505b50509050806110ce576040517f08c379a00000000000000000000000000000000000000000000000000000000081526004016110c5906117ca565b60405180910390fd5b60015f9054906101000a900473ffffffffffffffffffffffffffffffffffffffff1673ffffffffffffffffffffffffffffffffffffffff167fd7dee2702d63ad89917b6a4da9981c90c4d24f8c2bdfd64c604ecae57d8d06518360405161113591906111b2565b60405180910390a2505050565b5f73ffffffffffffffffffffffffffffffffffffffff82169050919050565b5f61116b82611142565b9050919050565b61117b81611161565b82525050565b5f6020820190506111945f830184611172565b92915050565b5f819050919050565b6111ac8161119a565b82525050565b5f6020820190506111c55f8301846111a3565b92915050565b7f4e487b71000000000000000000000000000000000000000000000000000000005f52602160045260245ffd5b60068110611209576112086111cb565b5b50565b5f819050611219826111f8565b919050565b5f6112288261120c565b9050919050565b6112388161121e565b82525050565b5f6020820190506112515f83018461122f565b92915050565b5f82825260208201905092915050565b7f4e6f7420627579657200000000000000000000000000000000000000000000005f82015250565b5f61129b600983611257565b91506112a682611267565b602082019050919050565b5f6020820190508181035f8301526112c88161128f565b9050919050565b7f496e76616c6964207374617465000000000000000000000000000000000000005f82015250565b5f611303600d83611257565b915061130e826112cf565b602082019050919050565b5f6020820190508181035f830152611330816112f7565b9050919050565b7f436f757269657220616c726561647920736574000000000000000000000000005f82015250565b5f61136b601383611257565b915061137682611337565b602082019050919050565b5f6020820190508181035f8301526113988161135f565b9050919050565b7f4e6f742073656c6c6572000000000000000000000000000000000000000000005f82015250565b5f6113d3600a83611257565b91506113de8261139f565b602082019050919050565b5f6020820190508181035f830152611400816113c7565b9050919050565b7f4e6f7420617574686f72697a65640000000000000000000000000000000000005f82015250565b5f61143b600e83611257565b915061144682611407565b602082019050919050565b5f6020820190508181035f8301526114688161142f565b9050919050565b7f4e487b71000000000000000000000000000000000000000000000000000000005f52601160045260245ffd5b5f6114a68261119a565b91506114b18361119a565b92508282019050808211156114c9576114c861146f565b5b92915050565b7f556e65787065637465642062616c616e636500000000000000000000000000005f82015250565b5f611503601283611257565b915061150e826114cf565b602082019050919050565b5f6020820190508181035f830152611530816114f7565b9050919050565b5f81905092915050565b50565b5f61154f5f83611537565b915061155a82611541565b5f82019050919050565b5f61156e82611544565b9150819050919050565b7f5061792073656c6c6572206661696c65640000000000000000000000000000005f82015250565b5f6115ac601183611257565b91506115b782611578565b602082019050919050565b5f6020820190508181035f8301526115d9816115a0565b9050919050565b7f50617920636f7572696572206661696c656400000000000000000000000000005f82015250565b5f611614601283611257565b915061161f826115e0565b602082019050919050565b5f6020820190508181035f83015261164181611608565b9050919050565b7f427579657220616c7265616479207365740000000000000000000000000000005f82015250565b5f61167c601183611257565b915061168782611648565b602082019050919050565b5f6020820190508181035f8301526116a981611670565b9050919050565b7f4e6f7420636f75726965720000000000000000000000000000000000000000005f82015250565b5f6116e4600b83611257565b91506116ef826116b0565b602082019050919050565b5f6020820190508181035f830152611711816116d8565b9050919050565b7f496e636f72726563742076616c756500000000000000000000000000000000005f82015250565b5f61174c600f83611257565b915061175782611718565b602082019050919050565b5f6020820190508181035f83015261177981611740565b9050919050565b7f526566756e64206661696c6564000000000000000000000000000000000000005f82015250565b5f6117b4600d83611257565b91506117bf82611780565b602082019050919050565b5f6020820190508181035f8301526117e1816117a8565b905091905056fea2646970667358221220d75dd5db7f1c3799aedec4aeda2615fea6878d91ffb3e26d32622ffb8e4a07d564736f6c63430008140033",
  "immutableReferences": {},
  "source": "// SPDX-License-Identifier: MIT\r\npragma solidity ^0.8.20;\r\n\r\ncontract EscrowSale {\r\n    enum State { Created, Funded, Shipped, Delivered, Completed, Cancelled }\r\n\r\n    address payable public seller;\r\n    address payable public buyer;\r\n    address payable public courier;\r\n\r\n    uint256 public price;\r\n    uint256 public courierFee;\r\n    State public state;\r\n\r\n    event Funded(address indexed buyer, uint256 amount);\r\n    event Shipped(address indexed courier);\r\n    event Delivered(address indexed buyer);\r\n    event Completed(address indexed seller, address indexed courier);\r\n    event Cancelled();\r\n    event Refunded(address indexed buyer, uint256 amount);\r\n\r\n    constructor(\r\n        uint256 _price,\r\n        uint256 _courierFee\r\n    ) {\r\n        seller = payable(msg.sender);\r\n        price = _price;\r\n        courierFee = _courierFee;\r\n        state = State.Created;\r\n    }\r\n\r\n    modifier onlyBuyer() {\r\n        require(msg.sender == buyer, \"Not buyer\");\r\n        _;\r\n    }\r\n\r\n    modifier onlySeller() {\r\n        require(msg.sender == seller, \"Not seller\");\r\n        _;\r\n    }\r\n\r\n    modifier onlyCourier() {\r\n        require(msg.sender == courier, \"Not courier\");\r\n        _;\r\n    }\r\n\r\n    modifier inState(State _state) {\r\n        require(state == _state, \"Invalid state\");\r\n        _;\r\n    }\r\n\r\n    // Prisiregistruoja pirkjas (tas, kas kvieia funkcij)\r\n    function registerBuyer() external {\r\n        require(buyer == address(0), \"Buyer already set\");\r\n        buyer = payable(msg.sender);\r\n    }\r\n\r\n    // Prisiregistruoja kurjeris\r\n    function registerCourier() external {\r\n        require(courier == address(0), \"Courier already set\");\r\n        courier = payable(msg.sender);\r\n    }\r\n\r\n    // Buyer i kontrakta sumoka price + courierFee\r\n    function fundPurchase()\r\n        external\r\n        payable\r\n        onlyBuyer\r\n        inState(State.Created)\r\n    {\r\n        require(msg.value == price + courierFee, \"Incorrect value\");\r\n        state = State.Funded;\r\n        emit Funded(msg.sender, msg.value);\r\n    }\r\n\r\n    // Courier pazymi, kad issiunte\r\n    function markShipped()\r\n        external\r\n        onlyCourier\r\n        inState(State.Funded)\r\n    {\r\n        state = State.Shipped;\r\n        emit Shipped(msg.sender);\r\n    }\r\n\r\n    // Buyer patvirtina pristatyma\r\n    function confirmDelivered()\r\n        external\r\n        onlyBuyer\r\n        inState(State.Shipped)\r\n    {\r\n        state = State.Delivered;\r\n        emit Delivered(msg.sender);\r\n    }\r\n\r\n    // Galutinis uzdarymas: ismoka seller ir courier\r\n    function complete()\r\n        external\r\n        inState(State.Delivered)\r\n    {\r\n        require(\r\n            msg.sender == buyer || msg.sender == seller,\r\n            \"Not authorized\"\r\n        );\r\n\r\n        uint256 sellerAmount = price;\r\n        uint256 courierAmount = courierFee;\r\n        uint256 bal = address(this).balance;\r\n\r\n        require(\r\n            bal == sellerAmount + courierAmount,\r\n            \"Unexpected balance\"\r\n        );\r\n\r\n        state = State.Completed;\r\n\r\n        (bool okSeller, ) = seller.call{value: sellerAmount}(\"\");\r\n        require(okSeller, \"Pay seller failed\");\r\n\r\n        (bool okCourier, ) = courier.call{value: courierAmount}(\"\");\r\n        require(okCourier, \"Pay courier failed\");\r\n\r\n        emit Completed(seller, courier);\r\n    }\r\n\r\n    // Seller gali ataukti, kol dar niekas nesufundino\r\n    function cancelBySeller()\r\n        external\r\n        onlySeller\r\n        inState(State.Created)\r\n    {\r\n        state = State.Cancelled;\r\n        emit Cancelled();\r\n    }\r\n\r\n    // Seller grazina pinigus buyer, jei jau Funded\r\n    function refundBuyer()\r\n        external\r\n        onlySeller\r\n        inState(State.Funded)\r\n    {\r\n        state = State.Cancelled;\r\n\r\n        uint256 amount = address(this).balance;\r\n\r\n        (bool ok, ) = buyer.call{value: amount}(\"\");\r\n        require(ok, \"Refund failed\");\r\n\r\n        emit Refunded(buyer, amount);\r\n    }\r\n}",
  "sourcePath": "C:\\Users\\Carbon\\escrow-truffle\\contracts\\EscrowSale.sol",
  "compiler": {
    "name": "solc",
    "version": "0.8.20+commit.a1b79de6.Emscripten.clang"
  },
  "schemaVersion": "3.4.16",
  "updatedAt": "2025-12-17T22:41:55.351Z",
  "networkType": "ethereum",
  "devdoc": {
    "kind": "dev",
    "methods": {},
    "version": 1
  },
  "userdoc": {
    "kind": "user",
    "methods": {},
    "version": 1
  }
}